:020000040000FA
:04000000FEEF17F008
:102AE600BCEC15F085EC15F0936A816A120000EED5
:102AF60019F00D0EEE6AE806FDE1000EF86E000113
:102B0600A0EF16F0956A9450F80B946E8290000E22
:102B1600016E020E9FEC15F0000E016E380E9FEC52
:102B260015F0000E016E0C0E9FEC15F0000E016EF6
:102B3600010E9FEC15F01200026E01B0A5EF15F024
:102B4600A8EF15F08282A9EF15F0829202C083FFEA
:102B560082848294958E828082928284829483BEBD
:102B6600B7EF15F0B9EF15F0B0EF15F08290959E1E
:102B76001200939493861F0E6F166F8E800E6E183A
:102B8600D8A4C8EF15F0CAEF15F0C1EF15F0776AB3
:102B9600E10E706E1B0E716E030E726E0D01D46B1C
:102BA6000F01026B036B006B016B1F0E6F166F50EC
:102BB600600E606E1200000E016E05509FEC15F05F
:102BC600FBEF15F0010E016E03C0F6FF04C0F7FF20
:102BD600F86A050EF76403D00800F55005D0F6CF65
:102BE600E9FFF7CFEAFFEF509FEC15F0034A042AFE
:102BF60003C0F6FF04C0F7FFF86A050EF76403D0BA
:102C06000800F55005D0F6CFE9FFF7CFEAFFEF5001
:102C16000009D8A411EF16F013EF16F0E5EF15F042
:102C2600120060BE19EF16F01BEF16F021EF16F03A
:102C3600000E026E000E016E9FEF16F061CF06F0D9
:102C4600076A62CF04F0050E056ED8900432052E91
:102C560028EF16F0070E04160450086E096A06C01F
:102C660004F007C005F0D89004360536D89004362F
:102C76000536D89004360536085004120950051258
:102C86000150D96EDA6A04C0DEFF05C0DDFF65506B
:102C96000F0B0A6E0350D96EDA6A0A50DE5CD8B0A2
:102CA60057EF16F059EF16F05EEF16F00350D96E97
:102CB600DA6ADF500A6E0350D96EDA6A0AC0DFFF9D
:102CC6000250D96EDA6A66CFDFFF0250D96EDA6A31
:102CD600010ED92667CFDFFF0250D96EDA6A020EDF
:102CE600D92668CFDFFF0250D96EDA6A030ED926DD
:102CF60069CFDFFF0250D96EDA6A040ED9266ACF91
:102D0600DFFF0250D96EDA6A050ED9266BCFDFFFD8
:102D16000250D96EDA6A060ED9266CCFDFFF025052
:102D2600D96EDA6A070ED9266DCFDFFF609EA490B2
:102D3600000E026E010E016E120073EC15F0CF0E3E
:102D4600036E2F0E046E800E056EDEEC15F0080E77
:102D5600186E160E016E0E0E026E180E036E14EC31
:102D660016F001500210D8B4BBEF16F0BDEF16F006
:102D7600DBEF17F0B9EF17F0106A0E0E036E046A58
:102D8600C00E056EDEEC15F0DBEF17F00EC00DF091
:102D960027EF17F0F60E036E2F0E046EC30E056EA8
:102DA600DEEC15F0DBEF17F0E60E036E2F0E046E69
:102DB600C30E056EDEEC15F0DBEF17F0E80E036EC2
:102DC6002F0E046EC30E056EDEEC15F0DBEF17F06A
:102DD600EA0E036E2F0E046EC30E056EDEEC15F0C2
:102DE600DBEF17F0EC0E036E2F0E046EC30E056EAE
:102DF600DEEC15F0DBEF17F0EE0E036E2F0E046E11
:102E0600C30E056EDEEC15F0DBEF17F0F00E036E69
:102E16002F0E046EC30E056EDEEC15F0DBEF17F019
:102E2600F80E036E2F0E046EC30E056EDEEC15F063
:102E3600DBEF17F0F20E036E2F0E046EC30E056E57
:102E4600DEEC15F0DBEF17F00D50310AD8B4CDEFFC
:102E560016F0030AD8B4D7EF16F0010AD8B4E1EF9A
:102E660016F0070AD8B4EBEF16F0010AD8B4F5EF5E
:102E760016F0030AD8B4FFEF16F0010AD8B409EF2A
:102E860017F00F0AD8B413EF17F0010AD8B41DEFE4
:102E960017F0DBEF17F0DBEF17F018500E0FD96EB7
:102EA600DA6ADF6A0E0E036E046AC50E056EDEEC84
:102EB60015F0DBEF17F018500E0FD96EDA6ADF6ADD
:102EC6000E0E036E046AC90E056EDEEC15F0DBEF1E
:102ED60017F0310E0E18D8A473EF17F075EF17F030
:102EE6007FEF17F0E00E036E2F0E046ECE0E056E0A
:102EF600DEEC15F0DBEF17F0320E0E18D8A486EFD5
:102F060017F088EF17F093EF17F0816AE30E036E60
:102F16002F0E046ECE0E056EDEEC15F0DBEF17F00D
:102F2600330E0E18D8A49AEF17F09CEF17F0A6EF01
:102F360017F0F80E036E2F0E046ECE0E056EDEEC45
:102F460015F0DBEF17F0340E0E18D8A4ADEF17F01E
:102F5600AFEF17F04EEF17F0F40E036E2F0E046E60
:102F6600CE0E056EDEEC15F0DBEF17F016C00BF09B
:102F760017C00CF00C50000AD8B4C4EF17F0DBEF02
:102F860017F00B50010AD8B4BFEF16F0030AD8B4F5
:102F9600C9EF16F0010AD8B45EEF17F0070AD8B4E5
:102FA60050EF17F0010AD8B46CEF17F0DBEF17F00B
:102FB600410E0B6EEE0EE82EFED70B2EFCD700D080
:102FC600AAEF16F0FEEF17F0005350204720544D9D
:102FD600202052504D20494E44004C20004F2000E6
:102FE600310032003300340035003600430048001B
:052FF6004E0052000036
:042FFC007AEF15F063
:020000040020DA
:08000000FFFFFFFFFFFFFFFF00
:020000040030CA
:0E000000FF071F1FFF8285FF0FC00FE00F409C
:00000001FF
