:020000040000FA
:04000000FEEF17F008
:10060000000006EC06F067EC04F01AC027F01BC0EF
:1006100028F020EE21F0040EDE6AE806FDE2030E6B
:10062000046EE80E036E27C001F028C002F0A2ECB1
:1006300004F001C008F002C009F0000E0B6E0A0EB3
:100640000A6E43EC05F00850300F216E000E046E68
:10065000640E036E27C001F028C002F0A2EC04F083
:1006600001C008F002C009F0000E0B6E0A0E0A6EFF
:1006700043EC05F00850300F226E000E046E0A0E97
:10068000036E27C001F028C002F0A2EC04F001C004
:1006900008F002C009F0000E0B6E0A0E0A6E43EC61
:1006A00005F00850300F236E27C008F028C009F06D
:1006B000000E0B6E0A0E0A6E43EC05F00850300F68
:1006C000246E256A000E026E030E016E210E036E6B
:1006D000050E046EBCEC03F0070E1F6E7D0EE82EB7
:1006E000FED71F2EFCD7000011EC05F0266E93EF0D
:1006F00003F0310E296E000E026E050E016E290EFA
:10070000036E010E046EBCEC03F0B0EF03F0330E89
:10071000296E7BEF03F0320E296E7BEF03F0340E6F
:10072000296E7BEF03F026501F6E206A2050000ACE
:10073000D8B49DEF03F0B0EF03F01F50000AD8B417
:100740008BEF03F0010AD8B479EF03F0030AD8B4B1
:1007500087EF03F0010AD8B48FEF03F0B0EF03F096
:10076000070E1F6E7D0EE82EFED71F2EFCD7000051
:1007700003EF03F0FEEF17F001C005F002C006F032
:10078000D89006320532D89006320532D89006321B
:10079000053205500F01416F01C005F0070E051627
:1007A000050E066ED8900536062ED2EF03F00550E2
:1007B000426F436B446B04C045FF460E076E0F0E3D
:1007C000086E0B6A04500B5CD8A0E9EF03F0EBEF66
:1007D00003F0F1EF03F0000E0A6E000E096EFAEF5F
:1007E00003F003500B24D96EDA6ADF50056E055012
:1007F000096E0A6A0B500724D96E000E0820DA6EC3
:1008000009C0DFFF0B2A070E0B6409EF04F00BEFA2
:1008100004F0E2EF03F00F01408740B712EF04F05D
:1008200014EF04F00DEF04F01200000E156E000E30
:10083000166E000E176E000E186E11501210131067
:100840001410D8B426EF04F028EF04F05EEF04F0A3
:10085000010E196E32EF04F0D890113612361336AD
:100860001436192A14AE37EF04F039EF04F02CEFE8
:1008700004F0D890153616361736183611500D5C20
:1008800012500E5813500F5814501058D8A04BEF58
:1008900004F04DEF04F056EF04F011500D5E1250CD
:1008A0000E5A13500F5A1450105A1580D890143203
:1008B000133212321132192E39EF04F015C00DF037
:1008C00016C00EF017C00FF018C010F01200410E45
:1008D0001C6EEE0EE82EFED71C2EFCD700D0040EA8
:1008E000A1EC05F0040EA1EC05F001C01DF002C062
:1008F0001EF01DC001F01EC002F0036A046A7C0EE7
:10090000056E150E066E000E076E000E086EDCEC0E
:1009100004F001C00DF002C00EF003C00FF004C0DF
:1009200010F0FF0E116E030E126E000E136E000E0D
:10093000146E15EC04F0DC0E0D241A6E050E0E205C
:100940001B6E1200000E066E000E056E03500410A2
:10095000D8B4ADEF04F0AFEF04F0D7EF04F0010E20
:10096000076EB7EF04F0D89003360436072A04AEBA
:10097000BCEF04F0BEEF04F0B3EF04F0D8900536FE
:1009800006360350015C04500258D8A0CAEF04F0A8
:10099000CCEF04F0D1EF04F00350015E0450025A92
:1009A0000580D89004320332072EBEEF04F005C054
:1009B00001F006C002F01200000E096E000E0A6E71
:1009C000000E0B6E000E0C6E01A0E9EF04F0EBEFD1
:1009D00004F0F3EF04F00550092606500A220750F0
:1009E0000B2208500C22D8900536063607360836FA
:1009F000D890043203320232013201500210031047
:100A00000410D8A406EF05F008EF05F0E4EF04F0B9
:100A100009C001F00AC002F00BC003F00CC004F0E2
:100A200012003CC003F0010E75EC05F0026E28EFD9
:100A300005F0010E036E3FEF05F0036A3FEF05F08E
:100A4000020E036E3FEF05F0030E036E3FEF05F05D
:100A50000250070AD8B424EF05F00C0AD8B420EFEE
:100A600005F0060AD8B41DEF05F0030AD8B419EF53
:100A700005F0010AD8B43FEF05F03FEF05F003C0E1
:100A80003CF0035012000A500B10D8B44AEF05F0A6
:100A90004CEF05F070EF05F0010E0C6E54EF05F011
:100AA000D8900A360B360C2A0BAE59EF05F05BEFE7
:100AB00005F050EF05F00A50085C0B500958D8A01B
:100AC00064EF05F066EF05F06AEF05F00A50085E86
:100AD0000B50095AD8900B320A320C2E5BEF05F0FE
:100AE00008C008F009C009F01200016E0104D8A482
:100AF0007CEF05F07EEF05F095EF05F082500F0BCF
:100B00000F0AD8B486EF05F088EF05F08CEF05F0FA
:100B100082500F0BA0EF05F00F0E8218D8A493EFB0
:100B200005F095EF05F095EF05F00150D8A49BEF87
:100B300005F09DEF05F09FEF05F088EF05F00F0E33
:100B40001200076E0F0E071607C003F0D890033689
:100B5000D8900336C250C30B0310C26E100EE82E9D
:100B6000FED700D0C282C2B2B8EF05F0BAEF05F0EE
:100B7000B3EF05F0C350C4CF03F0046A03C004F020
:100B8000036A0310056E0450066E05C001F006C02E
:100B900002F01200939493861F0E6F166F8E800ED4
:100BA0006E18D8A4D6EF05F0D8EF05F0CFEF05F01A
:100BB000776AE10E706E1B0E716E030E726E0D0180
:100BC000D46B0F01026B036B680E006FC00E016FD8
:100BD0001F0E6F166F50606A1200C08EC08AC088E8
:100BE000C096C090C082C094C292C19AC198C46A93
:100BF000C36AC280120000EE2AF0130EEE6AE80605
:100C0000FDE1000EF86E000101EF03F0CAEC05F003
:100C1000EDEC05F00DEC06F012000F0E9412120030
:042FFC00FBEF05F0F2
:020000040020DA
:08000000FFFFFFFFFFFFFFFF00
:020000040030CA
:0E000000FF071F1FFF8285FF0FC00FE00F409C
:00000001FF
