:020000040000FA
:04000000FEEF17F008
:101E000001011E0E936EF19E8150E009816E120059
:101E100034EC0FF00FEC0FF001EC0FF01200C08E5D
:101E2000C08AC088C096C090C082C094C292C19A35
:101E3000C198C46AC36AC2801200000EF66E1E0EFC
:101E4000F76E000EF86E0900F5CF5AF00900F5CFD5
:101E50005BF000EE48F0120EEE6AE806FDE1000EBF
:101E6000F86E0001A0EF12F0939493861F0E6F1688
:101E70006F8E800E6E18D8A440EF0FF042EF0FF077
:101E800039EF0FF0776AE10E706E1B0E716E030E64
:101E9000726E010E0D01D46F0F01026B036B340ED5
:101EA000006FA00E016F1F0E6F166F50606A120058
:101EB000076E0F0E071607C003F0D8900336D890B0
:101EC0000336C250C30B0310C26E100EE82EFED7AD
:101ED00000D0C282C2B26FEF0FF071EF0FF06AEF65
:101EE0000FF0C350C4CF03F0046A03C004F0036AC8
:101EF0000310056E0450066E05C001F006C002F026
:101F0000120003500410D8B488EF0FF08AEF0FF0DE
:101F1000AEEF0FF0010E056E92EF0FF0D890033682
:101F20000436052A04AE97EF0FF099EF0FF08EEF0D
:101F30000FF00350015C04500258D8A0A2EF0FF03C
:101F4000A4EF0FF0A8EF0FF00350015E0450025A07
:101F5000D89004320332052E99EF0FF001C001F042
:101F600002C002F01200010E5DEC10F0026E0204DD
:101F7000D8A4BDEF0FF0BFEF0FF0CAEF0FF0080EBF
:101F80005B60C5EF0FF0C7EF0FF0E9EF0FF05B2AD2
:101F9000E9EF0FF0020E0218D8A4D1EF0FF0D3EF43
:101FA0000FF0DEEF0FF0010E5B64D9EF0FF0DBEF07
:101FB0000FF0E9EF0FF05B06E9EF0FF0030E0218E8
:101FC000D8A4E5EF0FF0E7EF0FF0E9EF0FF0090EFF
:101FD0005B6E5B501200080EE82EFED70000040E68
:101FE00058EC0FF0040E58EC0FF001C034F002C0B2
:101FF00035F0AE0E136E470E146E250E156E410EA3
:10200000166E34C001F035C002F0036A046A000E97
:1020100046EC13F001C00FF002C010F003C011F045
:1020200004C012F020EC14F00FC028F010C029F00A
:1020300011C02AF012C02BF099EC11F028C032F038
:1020400029C033F01200000E066E000E056E03501C
:102050000410D8B42EEF10F030EF10F058EF10F05D
:10206000010E076E38EF10F0D89003360436072AB9
:1020700004AE3DEF10F03FEF10F034EF10F0D890C9
:10208000053606360350015C04500258D8A04BEFC9
:1020900010F04DEF10F052EF10F00350015E0450BD
:1020A000025A0580D89004320332072E3FEF10F019
:1020B00005C001F006C002F01200016E0104D8A4B0
:1020C00064EF10F066EF10F089EF10F01CEC12F0E6
:1020D000586E5828D8B46FEF10F071EF10F07DEF04
:1020E00010F05A50D8B477EF10F079EF10F07DEF80
:1020F00010F05A6A585096EF10F05828D8A483EF81
:1021000010F085EF10F095EF10F0010E5A6E95EF7C
:1021100010F00150D8A48FEF10F091EF10F095EF70
:1021200010F01CEC12F096EF10F0FF0E1200100EE3
:10213000E82EFED700D0060E58EC0FF0060E58EC35
:102140000FF001C038F002C039F00A0E136E280EED
:10215000146EA00E156E3B0E166E38C001F039C01D
:1021600002F0036A046A000E46EC13F001C00FF09F
:1021700002C010F003C011F004C012F0E8EC15F03A
:102180000FC034F010C035F011C036F012C037F077
:10219000000E136E000E146EC80E156E420E166EF3
:1021A00034C00FF035C010F036C011F037C012F057
:1021B000E8EC15F00FC028F010C029F011C02AF08B
:1021C00012C02BF099EC11F028C032F029C033F086
:1021D0001200066A02BEF1EF10F0EFEF10F0F7EF19
:1021E00010F0016C021ED8B0022A010E066E04BE69
:1021F000FEEF10F0FCEF10F002EF11F0036C041E84
:10220000D8B0042A03500410D8B409EF11F00BEF32
:1022100011F02FEF11F0010E056E13EF11F0D890B1
:1022200003360436052A04AE18EF11F01AEF11F048
:102230000FEF11F00350015C04500258D8A023EFB7
:1022400011F025EF11F029EF11F00350015E045059
:10225000025AD89004320332052E1AEF11F00650BC
:10226000D8B435EF11F037EF11F03BEF11F0016CFE
:10227000021ED8B0022A01C001F002C002F0120012
:1022800001C005F002C006F0D89006320532D890A1
:1022900006320532D8900632053205500F01416FE3
:1022A00001C005F0070E0516050E066ED89005361E
:1022B000062E56EF11F00550426F436B446B04C07D
:1022C00045FF460E076E0F0E086E0B6A04500B5C3E
:1022D000D8A06DEF11F06FEF11F075EF11F0000E57
:1022E0000A6E000E096E7EEF11F003500B24D96EBA
:1022F000DA6ADF50056E0550096E0A6A0B50072432
:10230000D96E000E0820DA6E09C0DFFF0B2A070E17
:102310000B648DEF11F08FEF11F066EF11F00F01EC
:10232000408740B796EF11F098EF11F091EF11F060
:1023300012002A342B34316E3150D8A4A2EF11F0A0
:10234000A4EF11F0AEEF11F0000E286E000E296E12
:10235000000E2A6E000E2B6E1BEF12F028C02CF020
:1023600029C02DF02AC02EF02BC02FF0200EBEEF7A
:1023700011F0D8902F322E322D322C32E82EB9EFB8
:1023800011F02C50306E2A8EFF0E2816FF0E2916E3
:10239000FF0E2A16000E2B16960E315E31BED5EFBB
:1023A00011F0D3EF11F0EBEF11F03150800A970FDD
:1023B000D8B0DDEF11F0DFEF11F0E1EF11F0A4EF95
:1023C00011F0D8902B322A3229322832313EE1EFF7
:1023D00011F003EF12F01F0E3164F1EF11F0F3EF83
:1023E00011F0FBEF11F0A4EF11F0D8902836293648
:1023F0002A362B3631063150D8A401EF12F003EF04
:1024000012F0F5EF11F03050D8B409EF12F00BEFE5
:1024100012F013EF12F02B1E2A1E291E286C000E3C
:1024200029222A222B2228C028F029C029F02AC0DC
:102430002AF02BC02BF01200819A818C818E81B200
:1024400024EF12F026EF12F029EF12F0010E9FEFA9
:1024500012F081B42EEF12F030EF12F033EF12F0E1
:10246000040E9FEF12F081B638EF12F03AEF12F03F
:102470003DEF12F0070E9FEF12F081B842EF12F01D
:1024800044EF12F047EF12F00A0E9FEF12F0818A2C
:10249000819C818E81B24FEF12F051EF12F054EF18
:1024A00012F0020E9FEF12F081B459EF12F05BEFC1
:1024B00012F05EEF12F0050E9FEF12F081B663EF9F
:1024C00012F065EF12F068EF12F0080E9FEF12F0B5
:1024D00081B86DEF12F06FEF12F072EF12F00B0E89
:1024E0009FEF12F0818A818C819E819E81B27BEF69
:1024F00012F07DEF12F080EF12F0030E9FEF12F05A
:1025000081B485EF12F087EF12F08AEF12F0060E19
:102510009FEF12F081B68FEF12F091EF12F094EF6F
:1025200012F0090E9FEF12F081B899EF12F09BEFB5
:1025300012F09EEF12F00C0E9FEF12F0FF0E120041
:1025400008EC0FF0EBEC0FF032C044F033C045F074
:10255000000E3F6E000E406E000E416E44C001F052
:1025600045C002F0000E046E0A0E036E23EC10F05C
:102570000150300F3F6E44C001F045C002F0000E24
:10258000046E0A0E036E81EC0FF00150300F406EA6
:10259000416A000E026E010E016E3F0E036E030EC5
:1025A000046E40EC11F0070E3A6E7D0EE82EFED759
:1025B0003A2EFCD70000B3EC0FF0426E436A42C0E3
:1025C00001F0026A000E046E0A0E036EE9EC10F0D0
:1025D0000150300F436E000E026E020E016E430E6C
:1025E000036E020E046E40EC11F0070E3A6E7D0E83
:1025F000E82EFED73A2EFCD7000097EC10F032C040
:1026000046F033C047F0F70EF66E2F0EF76E090056
:10261000F5CF3BF00900F5CF3CF00900F5CF3DF0D8
:102620000A00F5CF3EF046C001F047C002F0000EB0
:10263000046E0A0E036E23EC10F00150300F3B6E57
:1026400046C001F047C002F0000E046E0A0E036E91
:1026500081EC0FF00150300F3C6E630E3D6E3E6A10
:10266000000E026E040E016E3B0E036E040E046E2D
:1026700040EC11F0070E3A6E7D0EE82EFED73A2E92
:10268000FCD70000A2EF12F0FEEF17F0096E095020
:10269000D8B44DEF13F04FEF13F071EF13F004BE09
:1026A00056EF13F054EF13F071EF13F001C005F083
:1026B00002C006F003C007F004C008F0051E061EA5
:1026C000071E081E052A000E06220722082205C042
:1026D0000BF006C00CF007C00DF008C00EF079EF4B
:1026E00013F001C00BF002C00CF003C00DF004C0E9
:1026F0000EF00150021003100410D8A482EF13F062
:1027000084EF13F08EEF13F0000E016E000E026ED8
:10271000000E036E000E046E1FEF14F0960E0A6E8C
:1027200098EF13F00A2AD8900E320D320C320B3289
:10273000000E0B14056E000E0C14066E000E0D1428
:10274000076EFE0E0E14086E0550061007100810D6
:10275000D8A4ADEF13F0AFEF13F092EF13F0BDEF8D
:1027600013F00A2A010E0B26000E0C220D220E2257
:10277000D8900E320D320C320B32000E0B14056E57
:10278000000E0C14066E000E0D14076EFF0E0E14D4
:10279000086E0550061007100810D8A4D2EF13F0E9
:1027A000D4EF13F0B1EF13F0DCEF13F00A06D8907A
:1027B0000B360C360D360E360DBEE1EF13F0E3EF9F
:1027C00013F0EBEF13F0020E0A60E9EF13F0EBEFFA
:1027D00013F0D6EF13F00AB0F0EF13F0F2EF13F0AE
:1027E000F3EF13F00D9ED8900A320AC005F0066A86
:1027F000076A086A05C008F0076A066A056A055094
:102800000B1206500C1207500D1208500E120950F0
:10281000D8B40DEF14F00FEF14F017EF14F004BE5E
:1028200016EF14F014EF14F017EF14F00E8E0BC027
:1028300001F00CC002F00DC003F00EC004F0120055
:102840001250800B1F6E12501224266E11AE2BEF09
:1028500014F02DEF14F02EEF14F026802650D8B48B
:1028600034EF14F036EF14F04AEF14F02628D8A411
:102870003CEF14F03EEF14F046EF14F0000E0F6E34
:10288000000E106E000E116E000E126E118E126A86
:1028900052EF14F0000E0F6E000E106E000E116E4F
:1028A000000E126E1650800B1F1A16501624276E3B
:1028B00015AE5DEF14F05FEF14F060EF14F02780B9
:1028C0002750D8B466EF14F068EF14F07CEF14F0E2
:1028D0002728D8A46EEF14F070EF14F078EF14F0FE
:1028E000000E136E000E146E000E156E000E166EA6
:1028F000158E166A84EF14F0000E136E000E146E1F
:10290000000E156E000E166E1350141015101610D2
:10291000D8A48DEF14F08FEF14F0A7EF14F0000E91
:102920000F6E000E106E000E116E000E126E800EF5
:1029300011127F0E12121F5012120FC00FF010C092
:1029400010F011C011F012C012F0E7EF15F0265090
:10295000D8A4ADEF14F0AFEF14F0B9EF14F0000EFF
:102960000F6E000E106E000E116E000E126EE7EF6D
:1029700015F0275026C017F0186A175E000E185A77
:102980007F0E1724206E000E1820216E0FC01BF042
:1029900010C01CF011C01DF012C01EF0000E0F6E12
:1029A000000E106E000E116E000E126E000E226EE2
:1029B000000E236E000E246E000E256E276A19EF9E
:1029C00015F02750D8B4E7EF14F0E9EF14F000EF5A
:1029D00015F0D8901B361C361D361E36D8900F3693
:1029E00010361136123625AEF8EF14F0FAEF14F067
:1029F000FBEF14F00F80D89022362336243625368C
:102A000013501B5C14501C5815501D5816501E585E
:102A1000D8A00DEF15F00FEF15F018EF15F0258C7D
:102A200013501B5E14501C5A15501D5A16501E5A36
:102A3000272A190E27641FEF15F021EF15F0E1EF9B
:102A400014F01B501C101D101E10D8B42AEF15F0E6
:102A50002CEF15F044EF15F0228044EF15F0D890DC
:102A60000F3610361136123625AE39EF15F03BEF22
:102A700015F03CEF15F00F80D8902236233624361F
:102A800025362006D8A0210611AE49EF15F04BEFF0
:102A900015F02FEF15F0276A25AE51EF15F053EF23
:102AA00015F077EF15F0FF0E2214176EFF0E2314AA
:102AB000186EFF0E2414196E7F0E25141A6E17500F
:102AC000181019101A10D8B468EF15F06AEF15F045
:102AD0006EEF15F0010E276E77EF15F00FA073EF74
:102AE00015F075EF15F077EF15F06AEF15F0275038
:102AF000D8B47DEF15F07FEF15F0A3EF15F0010EC0
:102B00000F26000E10221122122212A08AEF15F0B9
:102B10008CEF15F0A3EF15F00FC017F010C018F0F0
:102B200011C019F012C01AF01A341A3219321832C0
:102B3000173217C00FF018C010F019C011F01AC0EA
:102B400012F0204A212A21BEAEEF15F0215008E1F3
:102B50002028D8A0AEEF15F0B0EF15F0BBEF15F0C0
:102B6000000E216E2068000E0F6E000E106E000E1B
:102B7000116E000E126E21BEC8EF15F0215006E155
:102B80002004D8B0C6EF15F0C8EF15F0D5EF15F05A
:102B9000000E216E000E206E000E0F6E000E106EE5
:102BA000000E116E000E126E1F6A20C026F026A0C5
:102BB000DCEF15F0DEEF15F0E1EF15F0118EE2EF2E
:102BC00015F0119ED8902630126E9BEF14F0120073
:102BD0001250800B1B6E12501224216E11AEF3EFB7
:102BE00015F0F5EF15F0F6EF15F021802150D8B46F
:102BF000FCEF15F0FEEF15F011EF16F02128D8A428
:102C000004EF16F006EF16F00EEF16F0000E0F6E42
:102C1000000E106E000E116E000E126E118E19EF66
:102C200016F0000E0F6E000E106E000E116E000EEC
:102C3000126E1650800B1B1A16501624206E15AEFD
:102C400024EF16F026EF16F027EF16F02080205024
:102C5000D8B42DEF16F02FEF16F042EF16F0202823
:102C6000D8A435EF16F037EF16F03FEF16F0000E50
:102C7000136E000E146E000E156E000E166E158E7D
:102C80004AEF16F0000E136E000E146E000E156E55
:102C9000000E166E2050D8B450EF16F052EF16F01A
:102CA0005AEF16F02150D8A458EF16F05AEF16F04C
:102CB00064EF16F0000E0F6E000E106E000E116E17
:102CC000000E126EFAEF17F015500F02F3CF26F038
:102CD000F4CF27F026501C6E1D6A1E6A1F6A27500B
:102CE000226E236A246A256A14501002F3CF26F05C
:102CF000F4CF27F026501C26000E1D221E221F2274
:102D000027502226000E23222422252213501102AE
:102D1000F3CF26F0F4CF27F026501C26000E1D22FC
:102D20001E221F2227502226000E23222422252283
:102D30001EC01FF01DC01EF01CC01DF01C6A1350E9
:102D40001002F3CF26F0F4CF27F026501C26275090
:102D50001D22000E1E22000E1F2214500F02F3CF60
:102D600026F0F4CF27F026501C2627501D22000EF7
:102D70001E22000E1F221EC01FF01DC01EF01CC010
:102D80001DF01C6A13500F02F3CF26F0F4CF27F08A
:102D900026501C2627501D22000E1E22000E1F2228
:102DA00015501002F3CF26F0F4CF27F0265022263C
:102DB00027502322000E2422000E25221450110237
:102DC000F3CF26F0F4CF27F02650222627502322D7
:102DD000000E2422000E252215501102F3CF26F0FA
:102DE000F4CF27F02650176E2750186E196A1A6A0A
:102DF00019C01AF018C019F017C018F0176A175048
:102E0000222618502322195024221A5025221CC091
:102E100017F01DC018F01EC019F01FC01AF0190ECF
:102E200017EF17F0D8901A32193218321732E82EED
:102E300012EF17F01750222618502322195024227F
:102E40001A5025221EC01FF01DC01EF01CC01DF010
:102E50001C6A205021C017F0186A1726000E18228D
:102E6000820E1724266EFF0E1820276E4DEF17F0E6
:102E7000D89022362336243625361FAE42EF17F07F
:102E800044EF17F045EF17F02280D8901C361D361E
:102E90001E361F362606D8A0270624AE52EF17F09E
:102EA00054EF17F038EF17F0206A1FAE5AEF17F003
:102EB0005CEF17F080EF17F0FF0E1C14176EFF0E7B
:102EC0001D14186EFF0E1E14196E7F0E1F141A6E3D
:102ED0001750181019101A10D8B471EF17F073EFBB
:102EE00017F077EF17F0010E206E80EF17F022A099
:102EF0007CEF17F07EEF17F080EF17F073EF17F00D
:102F00002050D8B486EF17F088EF17F0ACEF17F029
:102F1000010E2226000E23222422252225A093EF33
:102F200017F095EF17F0ACEF17F022C017F023C0A1
:102F300018F024C019F025C01AF01A341A321932C8
:102F40001832173217C022F018C023F019C024F02D
:102F50001AC025F0264A272A27BEB7EF17F02750B8
:102F600008E12628D8A0B7EF17F0B9EF17F0C3EFA4
:102F700017F0000E226E000E236E800E246E7F0E60
:102F8000256EF0EF17F027BED0EF17F0275006E1BF
:102F90002604D8B0CEEF17F0D0EF17F0DBEF17F024
:102FA000000E226E000E236E000E246E000E256EA3
:102FB0001B6AF0EF17F026C021F0FF0E2216FF0E5D
:102FC00023167F0E2416000E251621A0EAEF17F017
:102FD000ECEF17F0EDEF17F0248ED8902130256E2E
:102FE0001B50251222C00FF023C010F024C011F096
:102FF00025C012F012000000000000001DEF0FF0CD
:020000040020DA
:08000000FFFFFFFFFFFFFFFF00
:020000040030CA
:0E000000FF071F1FFF8285FF0FC00FE00F409C
:00000001FF
